{
  "_format": "hh-sol-artifact-1",
  "contractName": "TinyBank",
  "sourceName": "contracts/TinyBank.sol",
  "abi": [
    {
      "inputs": [
        {
          "internalType": "contract IMyToken",
          "name": "_stakingToken",
          "type": "address"
        }
      ],
      "stateMutability": "nonpayable",
      "type": "constructor"
    },
    {
      "anonymous": false,
      "inputs": [
        {
          "indexed": false,
          "internalType": "address",
          "name": "from",
          "type": "address"
        },
        {
          "indexed": false,
          "internalType": "uint256",
          "name": "amount",
          "type": "uint256"
        }
      ],
      "name": "Staked",
      "type": "event"
    },
    {
      "anonymous": false,
      "inputs": [
        {
          "indexed": false,
          "internalType": "uint256",
          "name": "amount",
          "type": "uint256"
        },
        {
          "indexed": false,
          "internalType": "address",
          "name": "to",
          "type": "address"
        }
      ],
      "name": "Withdraw",
      "type": "event"
    },
    {
      "inputs": [
        {
          "internalType": "address",
          "name": "",
          "type": "address"
        }
      ],
      "name": "lastClaimedBlock",
      "outputs": [
        {
          "internalType": "uint256",
          "name": "",
          "type": "uint256"
        }
      ],
      "stateMutability": "view",
      "type": "function"
    },
    {
      "inputs": [],
      "name": "manager",
      "outputs": [
        {
          "internalType": "address",
          "name": "",
          "type": "address"
        }
      ],
      "stateMutability": "view",
      "type": "function"
    },
    {
      "inputs": [],
      "name": "owner",
      "outputs": [
        {
          "internalType": "address",
          "name": "",
          "type": "address"
        }
      ],
      "stateMutability": "view",
      "type": "function"
    },
    {
      "inputs": [
        {
          "internalType": "uint256",
          "name": "_amount",
          "type": "uint256"
        }
      ],
      "name": "setRewardPerBlock",
      "outputs": [],
      "stateMutability": "nonpayable",
      "type": "function"
    },
    {
      "inputs": [
        {
          "internalType": "uint256",
          "name": "_amount",
          "type": "uint256"
        }
      ],
      "name": "stake",
      "outputs": [],
      "stateMutability": "nonpayable",
      "type": "function"
    },
    {
      "inputs": [
        {
          "internalType": "address",
          "name": "",
          "type": "address"
        }
      ],
      "name": "staked",
      "outputs": [
        {
          "internalType": "uint256",
          "name": "",
          "type": "uint256"
        }
      ],
      "stateMutability": "view",
      "type": "function"
    },
    {
      "inputs": [],
      "name": "stakingToken",
      "outputs": [
        {
          "internalType": "contract IMyToken",
          "name": "",
          "type": "address"
        }
      ],
      "stateMutability": "view",
      "type": "function"
    },
    {
      "inputs": [],
      "name": "totalStaked",
      "outputs": [
        {
          "internalType": "uint256",
          "name": "",
          "type": "uint256"
        }
      ],
      "stateMutability": "view",
      "type": "function"
    },
    {
      "inputs": [
        {
          "internalType": "uint256",
          "name": "_amount",
          "type": "uint256"
        }
      ],
      "name": "withdraw",
      "outputs": [],
      "stateMutability": "nonpayable",
      "type": "function"
    }
  ],
  "bytecode": "0x6080604052670de0b6b3a764000060045534801561001c57600080fd5b506040516110e63803806110e6833981810160405281019061003e9190610188565b333381600160006101000a81548173ffffffffffffffffffffffffffffffffffffffff021916908373ffffffffffffffffffffffffffffffffffffffff160217905550806000806101000a81548173ffffffffffffffffffffffffffffffffffffffff021916908373ffffffffffffffffffffffffffffffffffffffff160217905550505080600260006101000a81548173ffffffffffffffffffffffffffffffffffffffff021916908373ffffffffffffffffffffffffffffffffffffffff160217905550600454600581905550506101b5565b600080fd5b600073ffffffffffffffffffffffffffffffffffffffff82169050919050565b600061014382610118565b9050919050565b600061015582610138565b9050919050565b6101658161014a565b811461017057600080fd5b50565b6000815190506101828161015c565b92915050565b60006020828403121561019e5761019d610113565b5b60006101ac84828501610173565b91505092915050565b610f22806101c46000396000f3fe608060405234801561001057600080fd5b50600436106100935760003560e01c80638da5cb5b116100665780638da5cb5b1461010e57806398807d841461012c578063a694fc3a1461015c578063bb872b4a14610178578063c19e82d51461019457610093565b80632e1a7d4d14610098578063481c6a75146100b457806372f702f3146100d2578063817b1cd2146100f0575b600080fd5b6100b260048036038101906100ad9190610a29565b6101c4565b005b6100bc610558565b6040516100c99190610a97565b60405180910390f35b6100da61057c565b6040516100e79190610b11565b60405180910390f35b6100f86105a2565b6040516101059190610b3b565b60405180910390f35b6101166105a8565b6040516101239190610a97565b60405180910390f35b61014660048036038101906101419190610b82565b6105ce565b6040516101539190610b3b565b60405180910390f35b61017660048036038101906101719190610a29565b6105e6565b005b610192600480360381019061018d9190610a29565b61093e565b005b6101ae60048036038101906101a99190610b82565b6109d6565b6040516101bb9190610b3b565b60405180910390f35b336000600760008373ffffffffffffffffffffffffffffffffffffffff1673ffffffffffffffffffffffffffffffffffffffff168152602001908152602001600020541115610357576000600360008373ffffffffffffffffffffffffffffffffffffffff1673ffffffffffffffffffffffffffffffffffffffff168152602001908152602001600020544361025a9190610bde565b90506000600654600760008573ffffffffffffffffffffffffffffffffffffffff1673ffffffffffffffffffffffffffffffffffffffff16815260200190815260200160002054600554846102af9190610c12565b6102b99190610c12565b6102c39190610c83565b9050600260009054906101000a900473ffffffffffffffffffffffffffffffffffffffff1673ffffffffffffffffffffffffffffffffffffffff166394bf804d82856040518363ffffffff1660e01b8152600401610322929190610cb4565b600060405180830381600087803b15801561033c57600080fd5b505af1158015610350573d6000803e3d6000fd5b5050505050505b43600360008373ffffffffffffffffffffffffffffffffffffffff1673ffffffffffffffffffffffffffffffffffffffff1681526020019081526020016000208190555081600760003373ffffffffffffffffffffffffffffffffffffffff1673ffffffffffffffffffffffffffffffffffffffff16815260200190815260200160002054101561041d576040517f08c379a000000000000000000000000000000000000000000000000000000000815260040161041490610d3a565b60405180910390fd5b600260009054906101000a900473ffffffffffffffffffffffffffffffffffffffff1673ffffffffffffffffffffffffffffffffffffffff1663b7760c8f83336040518363ffffffff1660e01b815260040161047a929190610cb4565b600060405180830381600087803b15801561049457600080fd5b505af11580156104a8573d6000803e3d6000fd5b5050505081600760003373ffffffffffffffffffffffffffffffffffffffff1673ffffffffffffffffffffffffffffffffffffffff16815260200190815260200160002060008282546104fb9190610bde565b9250508190555081600660008282546105149190610bde565b925050819055507f8353ffcac0876ad14e226d9783c04540bfebf13871e868157d2a391cad98e918823360405161054c929190610cb4565b60405180910390a15050565b60008054906101000a900473ffffffffffffffffffffffffffffffffffffffff1681565b600260009054906101000a900473ffffffffffffffffffffffffffffffffffffffff1681565b60065481565b600160009054906101000a900473ffffffffffffffffffffffffffffffffffffffff1681565b60076020528060005260406000206000915090505481565b336000600760008373ffffffffffffffffffffffffffffffffffffffff1673ffffffffffffffffffffffffffffffffffffffff168152602001908152602001600020541115610779576000600360008373ffffffffffffffffffffffffffffffffffffffff1673ffffffffffffffffffffffffffffffffffffffff168152602001908152602001600020544361067c9190610bde565b90506000600654600760008573ffffffffffffffffffffffffffffffffffffffff1673ffffffffffffffffffffffffffffffffffffffff16815260200190815260200160002054600554846106d19190610c12565b6106db9190610c12565b6106e59190610c83565b9050600260009054906101000a900473ffffffffffffffffffffffffffffffffffffffff1673ffffffffffffffffffffffffffffffffffffffff166394bf804d82856040518363ffffffff1660e01b8152600401610744929190610cb4565b600060405180830381600087803b15801561075e57600080fd5b505af1158015610772573d6000803e3d6000fd5b5050505050505b43600360008373ffffffffffffffffffffffffffffffffffffffff1673ffffffffffffffffffffffffffffffffffffffff168152602001908152602001600020819055506000821015610801576040517f08c379a00000000000000000000000000000000000000000000000000000000081526004016107f890610da6565b60405180910390fd5b600260009054906101000a900473ffffffffffffffffffffffffffffffffffffffff1673ffffffffffffffffffffffffffffffffffffffff166323b872dd3330856040518463ffffffff1660e01b815260040161086093929190610dc6565b600060405180830381600087803b15801561087a57600080fd5b505af115801561088e573d6000803e3d6000fd5b5050505081600760003373ffffffffffffffffffffffffffffffffffffffff1673ffffffffffffffffffffffffffffffffffffffff16815260200190815260200160002060008282546108e19190610dfd565b9250508190555081600660008282546108fa9190610dfd565b925050819055507f9e71bc8eea02a63969f509818f2dafb9254532904319f9dbda79b67bd34a5f3d3383604051610932929190610e31565b60405180910390a15050565b60008054906101000a900473ffffffffffffffffffffffffffffffffffffffff1673ffffffffffffffffffffffffffffffffffffffff163373ffffffffffffffffffffffffffffffffffffffff16146109cc576040517f08c379a00000000000000000000000000000000000000000000000000000000081526004016109c390610ecc565b60405180910390fd5b8060058190555050565b60036020528060005260406000206000915090505481565b600080fd5b6000819050919050565b610a06816109f3565b8114610a1157600080fd5b50565b600081359050610a23816109fd565b92915050565b600060208284031215610a3f57610a3e6109ee565b5b6000610a4d84828501610a14565b91505092915050565b600073ffffffffffffffffffffffffffffffffffffffff82169050919050565b6000610a8182610a56565b9050919050565b610a9181610a76565b82525050565b6000602082019050610aac6000830184610a88565b92915050565b6000819050919050565b6000610ad7610ad2610acd84610a56565b610ab2565b610a56565b9050919050565b6000610ae982610abc565b9050919050565b6000610afb82610ade565b9050919050565b610b0b81610af0565b82525050565b6000602082019050610b266000830184610b02565b92915050565b610b35816109f3565b82525050565b6000602082019050610b506000830184610b2c565b92915050565b610b5f81610a76565b8114610b6a57600080fd5b50565b600081359050610b7c81610b56565b92915050565b600060208284031215610b9857610b976109ee565b5b6000610ba684828501610b6d565b91505092915050565b7f4e487b7100000000000000000000000000000000000000000000000000000000600052601160045260246000fd5b6000610be9826109f3565b9150610bf4836109f3565b9250828203905081811115610c0c57610c0b610baf565b5b92915050565b6000610c1d826109f3565b9150610c28836109f3565b9250828202610c36816109f3565b91508282048414831517610c4d57610c4c610baf565b5b5092915050565b7f4e487b7100000000000000000000000000000000000000000000000000000000600052601260045260246000fd5b6000610c8e826109f3565b9150610c99836109f3565b925082610ca957610ca8610c54565b5b828204905092915050565b6000604082019050610cc96000830185610b2c565b610cd66020830184610a88565b9392505050565b600082825260208201905092915050565b7f696e73756666696369656e74207374616b656420746f6b656e00000000000000600082015250565b6000610d24601983610cdd565b9150610d2f82610cee565b602082019050919050565b60006020820190508181036000830152610d5381610d17565b9050919050565b7f63616e6e6f74207374616b65203020616d6f756e740000000000000000000000600082015250565b6000610d90601583610cdd565b9150610d9b82610d5a565b602082019050919050565b60006020820190508181036000830152610dbf81610d83565b9050919050565b6000606082019050610ddb6000830186610a88565b610de86020830185610a88565b610df56040830184610b2c565b949350505050565b6000610e08826109f3565b9150610e13836109f3565b9250828201905080821115610e2b57610e2a610baf565b5b92915050565b6000604082019050610e466000830185610a88565b610e536020830184610b2c565b9392505050565b7f596f7520617265206e6f7420617574686f72697a656420746f206d616e61676560008201527f207468697320636f6e7472616374000000000000000000000000000000000000602082015250565b6000610eb6602e83610cdd565b9150610ec182610e5a565b604082019050919050565b60006020820190508181036000830152610ee581610ea9565b905091905056fea264697066735822122045f46ddb27dba5767abde17e187256003094cad9f0d8bfa1e6ebaa1578f1eff064736f6c634300081c0033",
  "linkReferences": {},
  "deployedLinkReferences": {}
}